:10000000000000308A002528A401A300FF30A307C8
:10001000031CA407031C21280330A200E630122091
:100020000628A201FC3EA100A209031C1D28FF30E6
:100030000000A10703181828A1070000A20F172825
:10004000080083138312031308008312031383161B
:100050000317880189018312870188014030031347
:10006000A9007930AA002430AB003030AC00193040
:10007000AD001230AE000230AF007830B000B101F8
:100080001830B2008316051487010317880189010F
:1000900083120313B301290887000130A400F43050
:1000A0008A0105208A110A12051C5C288A110A128D
:1000B00061208A110A125F288A110A1277208A01A8
:1000C0005228093033028A110A12031D6B28B3012A
:1000D0008A110A126C28B30A3308293E84000008EA
:1000E00087000130A400F4308A0105200800B3081D
:1000F0008A110A12031D81280930B3008A110A12DD
:100100008228B3033308293E8400000887000130A9
:0E011000A400F4308A01052008008A018D2821
:02400E00D220BE
:02401000FF3F70
:00000001FF
